S014000041546D6567615F77353530302E7372656341
S11300000C9434000C9451000C9451000C94510045
S11300100C9451000C9451000C9451000C94510018
S11300200C9451000C9451000C9451000C94510008
S11300300C9451000C9451000C9451000C945100F8
S11300400C9451000C9451000C9451000C945100E8
S11300500C9451000C9451000C9451000C945100D8
S11300600C9451000C94510011241FBECFEFD8E022
S1130070DEBFCDBF11E0A0E0B1E0EEEEF8E002C0DB
S113008005900D92A633B107D9F721E0A6E3B1E0BC
S113009001C01D92AA33B207E1F70E9453000C94E9
S11300A075040C940000CF93DF93CDB7DEB7DA95D7
S11300B00FB6F894DEBF0FBECDBF87E60E94D60010
S11300C086E091E00E948D012FEF89E698E12150AE
S11300D080409040E1F700C0000048E853E161E04F
S11300E080E00E94BD018331C1F72091000130916D
S11300F0010140910201509103016091040170914A
S1130100050180E00E94F601873179F7BE016F5F37
S11301107F4F80E00E94E3028823C1F360E071E036
S11301208E010F5F1F4FC8010E946A04482FB80157
S113013080E00E9495021F930F938AE191E09F93C0
S11301408F930E94E8002FEF87EA91E621508040C8
S11301509040E1F700C000000F900F900F900F90B7
S1130160D5CFFC01908121E030E0D90102C0AA0F73
S1130170BB1F5A95E2F702C0220F331F6A95E2F7BC
S11301802A2B292B20838CB581658CBD8CB5837D6E
S11301908CBD08958EBD0DB407FEFDCF08958FEF7D
S11301A08EBD0DB407FEFDCF8EB508951092C50027
S11301B08093C40088E18093C10086E08093C200EC
S11301C008959091C00095FFFCCF8093C6000895D8
S11301D0AF92BF92CF92DF92EF92FF920F931F9351
S11301E0CF93DF93CDB7DEB72C970FB6F894DEBF6D
S11301F00FBECDBFFE017996019111917F0178C0A8
S1130200853209F06FC068018FEFC81AD80AF80167
S11302108181833651F020F4853209F45FC065C0D2
S11302208436F1F0833751F060C087010E5F1F4FB1
S1130230F70180810E94E100780157C05701F2E084
S1130240AF0EB11CF7010081118104C00F5F1F4F75
S11302500E94E100F80180818111F8CF750145C049
S11302605701F2E0AF0EB11CF701E080F180E11418
S1130270F10421F480E30E94E1002EC0FF2034F455
S11302808DE20E94E100F194E194F10800E010E0B5
S113029011C0C7016AE070E00E944204805DE1E0A1
S11302A0F0E0EC0FFD1FE00FF11F8083E62EF72E28
S11302B00F5F1F4F1E141F0464F30BC0015011097C
S11302C0E1E0F0E0EC0FFD1FE00FF11F80810E94E0
S11302D0E1001016110694F3750107C085E20E942F
S11302E0E10003C00E94E100680186010F5F1F4F17
S11302F0F8018081811184CF2C960FB6F894DEBF6B
S11303000FBECDBFDF91CF911F910F91FF90EF9062
S1130310DF90CF90BF90AF900895CF93DF93EC011F
S11303200E945E0340E860E070E080E00E94940375
S113033024E0AE016FE070E080E00E940304AE01AF
S1130340425F5F4F26E069E070E080E00E940304B2
S1130350AE014A5F5F4F24E061E070E080E00E94FC
S11303600304AE01465F5F4F24E065E070E080E087
S11303700E940304DF91CF910895FF920F931F937E
S1130380CF93DF9300D0CDB7DEB7042FF52E880FBF
S1130390880F11E0180F462F60E070E0812F0E9453
S11303A09403F9820A8322E0AE014F5F5F4F64E059
S11303B070E0812F0E94030441E061E070E0812F2E
S11303C00E94940361E070E081E00E946B0381115C
S11303D0F9CF63E070E081E00E946B030F900F900F
S11303E0DF91CF911F910F91FF9008951F93CF93A9
S11303F0DF93CDB7DEB728970FB6F894DEBF0FBEF4
S1130400CDBF2B833C834D835E836F837887798351
S11304106A83880F880F11E0180F22E0AE014F5F46
S11304205F4F60E170E0812F0E94030424E0AE017D
S11304304D5F5F4F6CE070E0812F0E94030444E045
S113044061E070E0812F0E94940361E070E081E03C
S11304500E946B038111F9CF63E070E081E00E9498
S11304606B0328960FB6F894DEBF0FBECDBFDF91A5
S1130470CF911F910895AB01880F880F22E060E2AD
S113048070E08F5F0E94C20391E0813009F090E038
S1130490892F0895AB01880F880F22E066E270E08F
S11304A08F5F0E94C20391E0813009F090E0892FB0
S11304B00895AB01880F880F22E068E270E08F5F37
S11304C00E94C20391E0813009F090E0892F0895E1
S11304D0AB01880F880F22E068E270E08F5F0E9412
S11304E0030491E0813009F090E0892F0895AB0175
S11304F0880F880F22E064E270E08F5F0E94C203DD
S113050091E0813009F090E0892F0895AB01880FC4
S1130510880F22E064E270E08F5F0E94030491E0A0
S1130520813009F090E0892F0895DF92EF92FF92D5
S11305300F931F93CF93DF9300D0CDB7DEB7182F5F
S11305407B01D42EBE016F5F7F4F0E943B02BE0130
S11305506F5F7F4F812F0E947702698170E08A81EB
S1130560762F6627682B7093390160933801012F29
S1130570000F000F2D2DA70182E0800F0E940304BD
S113058080913801909139018D0D911D909339011D
S11305908093380199838A83BE016F5F7F4F812FD7
S11305A00E94860240E261E070E081E0800F0E94D8
S11305B094030F900F90DF91CF911F910F91FF90B3
S11305C0EF90DF900895BF92CF92DF92EF92FF9267
S11305D00F931F93CF93DF9300D0CDB7DEB7B82E20
S11305E06B01BE016F5F7F4F0E944A02E980F12CCC
S11305F08A81FE2CEE24E82ABE016F5F7F4F8B2D8B
S11306000E944A02098110E08A81102F0027082BDA
S11306100EC0BE016F5F7F4F8B2D0E944A028981FD
S113062090E02A81982F882778018C01022BE0160C
S1130630F10679F701151105A1F1BE016F5F7F4F36
S11306408B2D0E945902698170E08A81762F66277A
S1130650682B7093370160933601FB2CFF0CFF0C61
S1130660202FA60183E08F0D0E94C20380913601E2
S113067090913701080F191F109337010093360129
S113068019830A83BE016F5F7F4F8B2D0E9468021E
S113069040E461E070E081E08F0D0E94940381E00A
S11306A001C080E00F900F90DF91CF911F910F91C7
S11306B0FF90EF90DF90CF90BF900895409132016A
S11306C050913301609134017091350184E290E0DE
S11306D00E94B1000895CF93DF93C82FD62F872FA0
S11306E094B1946094B995B19B7F95B99AE09A9529
S11306F0F1F700C00E94CA008D2F0E94CA008C2FFF
S1130700880F880F880F0E94CA000E94CF009AE0C9
S11307109A95F1F700C094B1946094B995B194603E
S113072095B9DF91CF9108951F93CF93DF93C82F8D
S1130730162F872FD42F94B1946094B995B19B7FD1
S113074095B99AE09A95F1F700C00E94CA00812FEA
S11307500E94CA008C2F880F880F880F84600E9423
S1130760CA008D2F0E94CA008AE08A95F1F700C062
S113077084B1846084B985B1846085B9DF91CF91F7
S11307801F910895EF92FF920F931F93CF93DF93DE
S1130790C82F162F872F7A01D22F94B1946094B961
S11307A095B19B7F95B99AE09A95F1F700C00E94A4
S11307B0CA00812F0E94CA008C2F880F880F880FCF
S11307C00E94CA0080E0C1E0C80F8701080F111D14
S11307D00E94CF00F80180838C2FCD17A0F3FAE09C
S11307E0FA95F1F700C084B1846084B985B184605E
S11307F085B981E0CD1380E0DF91CF911F910F91F6
S1130800FF90EF900895FF920F931F93CF93DF9380
S1130810C82FF62E872F8A01D22F94B1946094B9F1
S113082095B19B7F95B99AE09A95F1F700C00E9423
S1130830CA008F2D0E94CA008C2F880F880F880F42
S113084084600E94CA0080E0C1E0C80FF801E80F8C
S1130850F11D80810E94CA008C2FCD17A8F38AE075
S11308608A95F1F700C084B1846084B985B184604D
S113087085B981E0CD1380E0DF91CF911F910F9175
S1130880FF90089597FB072E16F4009407D077FD88
S113089009D00E94560407FC05D03EF4909581953A
S11308A09F4F0895709561957F4F0895AA1BBB1BB8
S11308B051E107C0AA1FBB1FA617B70710F0A61B5C
S11308C0B70B881F991F5A95A9F780959095BC017D
S11308D0CD010895FC016150704001900110D8F7DA
S11108E0809590958E0F9F1F0895F894FFCF7A
S11308EEA9FECABE8813A9FECAB18813000000006F
S11308FEFFFF00000008DC01020325730A00737475
S113090E61747573203D2025640A00546573743533
S109091E0A0004030502B7
S9030000FC
