S014000041546D6567615F77353530302E7372656341
S11300000C9434000C9449000C9449000C9449005D
S11300100C9449000C9449000C9449000C94490038
S11300200C9449000C9449000C9449000C94490028
S11300300C9449000C9449000C9449000C94490018
S11300400C9449000C9449000C9449000C94490008
S11300500C9449000C9449000C9449000C944900F8
S11300600C9449000C94490011241FBECFEFD8E032
S1130070DEBFCDBF11E0A0E0B1E0E2E7F4E002C0F2
S113008005900D92A232B107D9F70E944B000C944F
S113009037020C940000CF93DF9300D000D0CDB78B
S11300A0DEB787E60E94B6000E947C0124E040E0AF
S11300B051E061E070E080E00E94D0010E94C10044
S11300C024E0AE014F5F5F4F61E070E080E00E948A
S11300D08F018823C1F03C812B819A8189811F92F1
S11300E03F931F922F931F929F931F928F9384E0AD
S11300F091E09F938F930E94D7000FB6F894DEBFD0
S11301000FBECDBF04C081E191E00E94C8009FEF03
S113011023ED80E3915020408040E1F700C00000CF
S1130120CFCFFC01908121E030E0D90102C0AA0FB9
S1130130BB1F5A95E2F702C0220F331F6A95E2F7FC
S11301402A2B292B20838CB581658CBD8CB5837DAE
S11301508CBD08958EBD0DB407FEFDCF08958FEFBD
S11301608EBD0DB407FEFDCF8EB508951092C50067
S11301708093C40088E18093C10086E08093C2002C
S113018008959091C00095FFFCCF8093C600089518
S1130190CF93DF93EC0103C00E94C10021968881B4
S11301A08A30D1F70E94C100DF91CF910895AF92B8
S11301B0BF92CF92DF92EF92FF920F931F93CF9350
S11301C0DF93CDB7DEB72C970FB6F894DEBF0FBE22
S11301D0CDBFFE017996019111917F0178C08532DE
S11301E009F06FC068018FEFC81AD80AF80181813D
S11301F0833651F020F4853209F45FC065C084363B
S1130200F1F0833751F060C087010E5F1F4FF70193
S113021080810E94C100780157C05701F2E0AF0EFF
S1130220B11CF7010081118104C00F5F1F4F0E94B0
S1130230C100F80180818111F8CF750145C05701D3
S1130240F2E0AF0EB11CF701E080F180E114F1049B
S113025021F480E30E94C1002EC0FF2034F48DE21B
S11302600E94C100F194E194F10800E010E011C093
S1130270C7016AE070E00E940F02805DE1E0F0E0F7
S1130280EC0FFD1FE00FF11F8083E62EF72E0F5FAA
S11302901F4F1E141F0464F30BC001501109E1E049
S11302A0F0E0EC0FFD1FE00FF11F80810E94C10000
S11302B01016110694F3750107C085E20E94C1006F
S11302C003C00E94C100680186010F5F1F4FF8013F
S11302D08081811184CF2C960FB6F894DEBF0FBEB7
S11302E0CDBFDF91CF911F910F91FF90EF90DF90E1
S11302F0CF90BF90AF90089540911D0150911E0181
S113030060911F017091200184E290E00E949100AD
S11303108FE39CE90197F1F700C000000895EF9284
S1130320FF920F931F93CF93DF93C82F162F872F1E
S11303307A01D22F94B1946094B995B19B7F95B909
S11303409AE09A95F1F700C00E94AA00812F0E94BA
S1130350AA008C2F880F880F880F0E94AA0080E0C3
S1130360C1E0C80F8701080F111D0E94AF00F801FA
S113037080838C2FCD17A0F3FAE0FA95F1F700C033
S113038084B1846084B985B1846085B981E0CD137A
S113039080E0DF91CF911F910F91FF90EF9008952E
S11303A0FF920F931F93CF93DF93C82FF62E872FBF
S11303B08A01D22F94B1946094B995B19B7F95B979
S11303C09AE09A95F1F700C00E94AA008F2D0E942E
S11303D0AA008C2F880F880F880F84600E94AA00BF
S11303E080E0C1E0C80FF801E80FF11D80810E9490
S11303F0AA008C2FCD17A8F38AE08A95F1F700C0E4
S113040084B1846084B985B1846085B981E0CD13F9
S113041080E0DF91CF911F910F91FF90089597FB9A
S1130420072E16F4009407D077FD09D00E9423020A
S113043007FC05D03EF4909581959F4F08957095E3
S113044061957F4F0895AA1BBB1B51E107C0AA1FEA
S1130450BB1FA617B70710F0A61BB70B881F991F61
S11304605A95A9F780959095BC01CD010895F8940B
S1050470FFCFB8
S1130472C080010125642E25642E25642E25640A7C
S11304820052454144204552524F520A000403058A
S1050492020062
S9030000FC
