S014000041546D6567615F77353530302E7372656341
S11300000C9434000C9451000C9451000C94510045
S11300100C9451000C9451000C9451000C94510018
S11300200C9451000C9451000C9451000C94510008
S11300300C9451000C9451000C9451000C945100F8
S11300400C9451000C9451000C9451000C945100E8
S11300500C9451000C9451000C9451000C945100D8
S11300600C9451000C94510011241FBECFEFD8E022
S1130070DEBFCDBF13E0A0E0B1E0EEE5F7E002C0E3
S113008005900D92AA35B107D9F723E0AAE5B3E0AC
S113009001C01D92AC35B207E1F70E9453000C94E5
S11300A0AD030C940000CF93DF93CDB7DEB7D250ED
S11300B00FB6F894DEBF0FBECDBF87E60E943F01A6
S11300C00E9490022FEF39E688E1215030408040B1
S11300D0E1F700C0000085E0E8E1F1E0DE011196FF
S11300E001900D928A95E1F7FE0136968BEF91E02F
S11300F0DF019C011D9221503040E1F740E860E0AF
S113010070E080E00E94CC0224E044E051E06FE023
S113011070E080E00E943B0341E060E070E081E039
S11301200E94CC0224E040E051E06CE070E081E009
S11301300E943B0322E048E051E064E070E081E08B
S11301400E943B0322E048E051E060E170E081E07E
S11301500E943B0341E061E070E081E00E94CC0238
S113016061E070E081E00E94A3028111F9CF63E0B5
S113017070E081E00E94A3028331C9F744E061E0AA
S113018070E081E00E94CC0261E070E081E00E94B6
S1130190A3028111F9CF63E070E081E00E94A30221
S11301A0182F3FEF83ED90E3315080409040E1F70A
S11301B000C000001F921F9388E193E09F938F93E8
S11301C00E9451010F900F900F900F90173119F763
S11301D061E070E081E00E94A3028111F9CF85E221
S11301E093E09F938F930E9451010F900F9060E0D2
S11301F072E08E010F5F1F4FC8010E94A203482FB7
S1130200B80180E00E9423021F930F938CE293E0D5
S11302109F938F930E945101AFEFB7EA21E6A1505B
S1130220B0402040E1F700C000000F900F900F9005
S11302300F90DDCFFC01908121E030E0D90102C0B4
S1130240AA0FBB1F5A95E2F702C0220F331F6A950B
S1130250E2F72A2B292B20838CB581658CBD8CB5C4
S1130260837D8CBD08958EBD0DB407FEFDCF08952A
S11302708FEF8EBD0DB407FEFDCF8EB5089510929D
S1130280C5008093C40088E18093C10086E0809318
S1130290C20008959091C00095FFFCCF8093C600E2
S11302A00895AF92BF92CF92DF92EF92FF920F9395
S11302B01F93CF93DF93CDB7DEB72C970FB6F89487
S11302C0DEBF0FBECDBFFE017996019111917F0172
S11302D078C0853209F06FC068018FEFC81AD80A58
S11302E0F8018181833651F020F4853209F45FC02E
S11302F065C08436F1F0833751F060C087010E5F2A
S11303001F4FF70180810E944A01780157C05701AD
S1130310F2E0AF0EB11CF7010081118104C00F5F40
S11303201F4F0E944A01F80180818111F8CF7501A5
S113033045C05701F2E0AF0EB11CF701E080F18037
S1130340E114F10421F480E30E944A012EC0FF204D
S113035034F48DE20E944A01F194E194F10800E042
S113036010E011C0C7016AE070E00E947A03805D6A
S1130370E1E0F0E0EC0FFD1FE00FF11F8083E62EBB
S1130380F72E0F5F1F4F1E141F0464F30BC00150A0
S11303901109E1E0F0E0EC0FFD1FE00FF11F808197
S11303A00E944A011016110694F3750107C085E2F4
S11303B00E944A0103C00E944A01680186010F5F3E
S11303C01F4FF8018081811184CF2C960FB6F894C9
S11303D0DEBF0FBECDBFDF91CF911F910F91FF9074
S11303E0EF90DF90CF90BF90AF900895AB01880F4E
S11303F0880F22E060E270E08F5F0E94FA0291E0D1
S1130400813009F090E0892F0895AB01880F880F9F
S113041022E064E270E08F5F0E94FA0291E0813092
S113042009F090E0892F0895AB01880F880F22E02E
S113043064E270E08F5F0E943B0391E0813009F039
S113044090E0892F0895DF92EF92FF920F931F930C
S1130450CF93DF9300D0CDB7DEB7F82E8B01E42E17
S1130460BE016F5F7F4F0E94F601898190E02A816F
S1130470982F8827822B9F938F9380E393E09F93F9
S11304808F930E945101BE016F5F7F4F8F2D0E9499
S11304900502898190E02A81982F8827822B9093E6
S11304A05B0380935A039F938F938AE393E09F9314
S11304B08F930E945101DF2CDD0CDD0C60915A03F7
S11304C070915B032E2DA80182E08D0D0E943B03E9
S11304D080915A0390915B038E0D911D90935B0361
S11304E080935A0399838A83BE016F5F7F4F8F2D58
S11304F00E94140240E261E070E081E08D0D0E94F0
S1130500CC020FB6F894DEBF0FBECDBF0F900F9094
S1130510DF91CF911F910F91FF90EF90DF9008959D
S113052040915603509157036091580370915903B9
S113053084E290E00E941A018FE39CE90197F1F7AD
S113054000C000000895CF93DF93C82FD62F872FC4
S113055094B1946094B995B19B7F95B99AE09A95BA
S1130560F1F700C00E9433018D2F0E9433018C2FBC
S1130570880F880F880F0E9433010E9438019AE087
S11305809A95F1F700C094B1946094B995B19460D0
S113059095B9DF91CF9108951F93CF93DF93C82F1F
S11305A0162F872FD42F94B1946094B995B19B7F63
S11305B095B99AE09A95F1F700C00E943301812F12
S11305C00E9433018C2F880F880F880F84600E944B
S11305D033018D2F0E9433018AE08A95F1F700C020
S11305E084B1846084B985B1846085B9DF91CF9189
S11305F01F910895EF92FF920F931F93CF93DF9370
S1130600C82F162F872F7A01D22F94B1946094B9F2
S113061095B19B7F95B99AE09A95F1F700C00E9435
S11306203301812F0E9433018C2F880F880F880F8C
S11306300E94330180E0C1E0C80F8701080F111D3B
S11306400E943801F80180838C2FCD17A0F3FAE0C3
S1130650FA95F1F700C084B1846084B985B18460EF
S113066085B981E0CD1380E0DF91CF911F910F9187
S1130670FF90EF900895FF920F931F93CF93DF9312
S1130680C82FF62E872F8A01D22F94B1946094B983
S113069095B19B7F95B99AE09A95F1F700C00E94B5
S11306A033018F2D0E9433018C2F880F880F880F00
S11306B084600E94330180E0C1E0C80FF801E80FB4
S11306C0F11D80810E9433018C2FCD17A8F38AE09D
S11306D08A95F1F700C084B1846084B985B18460DF
S11306E085B981E0CD1380E0DF91CF911F910F9107
S11306F0FF90089597FB072E16F4009407D077FD1A
S113070009D00E948E0307FC05D03EF49095819594
S11307109F4F0895709561957F4F0895AA1BBB1B49
S113072051E107C0AA1FBB1FA617B70710F0A61BED
S1130730B70B881F991F5A95A9F780959095BC010E
S1130740CD010895FC016150704001900110D8F76B
S1110750809590958E0F9F1F0895F894FFCF0B
S113075EA9FECABEA9FECAB1138800000000FFFF9D
S113076E00000008DC01020348697E0A0000000054
S113077E0000000000000000000000000000000067
S113078E0000000000000000000000000000000057
S113079E0000000000000000000000000000000047
S11307AE0000000000000000000000000000000037
S11307BE0000000000000000000000000000000027
S11307CE0000000000000000000000000000000017
S11307DE0000000000000000000000000000000007
S11307EE00000000000000000000000000000000F7
S11307FE00000000000000000000000000000000E7
S113080E00000000000000000000000000000000D6
S113081E00000000000000000000000000000000C6
S113082E00000000000000000000000000000000B6
S113083E00000000000000000000000000000000A6
S113084E0000000000000000000000000000000096
S113085E0000000000000000000000000000000086
S113086E0000000000000000000000000000000076
S113087E0000000000000000000000000000000066
S113088E0000000000000000000000000000000056
S113089E0000000000000000000000000000000046
S11308AE0000000000000000000000000000000036
S11308BE0000000000000000000000000000000026
S11308CE0000000000000000000000000000000016
S11308DE0000000000000000000000000000000006
S11308EE00000000000000000000000000000000F6
S11308FE00000000000000000000000000000000E6
S113090E00000000000000000000000000000000D5
S113091E00000000000000000000000000000000C5
S113092E00000000000000000000000000000000B5
S113093E00000000000000000000000000000000A5
S113094E0000000000000000000000000000000095
S113095E0000000000000000000000000000000085
S113096E0000000000000000737461747573203D74
S113097E2025640A0054657374350A0025730A0031
S113098E667372203A2025640A007772203A202575
S113099E640A00727372203A2025640A007264207D
S10D09AE3A2025640A000403050240
S9030000FC
