S014000041546D6567615F77353530302E7372656341
S11300000C9434000C9449000C9449000C9449005D
S11300100C9449000C9449000C9449000C94490038
S11300200C9449000C9449000C9449000C94490028
S11300300C9449000C9449000C9449000C94490018
S11300400C9449000C9449000C9449000C94490008
S11300500C9449000C9449000C9449000C944900F8
S11300600C9449000C94490011241FBECFEFD8E032
S1130070DEBFCDBF11E0A0E0B1E0E8EFF5E002C0E3
S113008005900D92A434B107D9F70E944B000C944B
S1130090FA020C940000CF93DF9300D0CDB7DEB703
S11300A087E60E9422010E94E8012FEF89E698E189
S11300B0215080409040E1F700C0000019821A826C
S11300C040E860E070E080E00E94240224E044E024
S11300D051E06FE070E080E00E94930241E060E054
S11300E070E081E00E94240224E040E051E06CE0F2
S11300F070E081E00E94930222E048E051E064E075
S113010070E081E00E94930222E048E051E060E167
S113011070E081E00E94930241E061E070E081E0E0
S11301200E94240261E070E081E00E94FB018111E1
S1130130F9CF63E070E081E00E94FB018331C9F7ED
S113014044E061E070E081E00E94240261E070E03C
S113015081E00E94FB018111F9CF2FEF83ED90E341
S1130160215080409040E1F700C0000063E070E05F
S113017081E00E94FB01182F1F928F9388E191E088
S11301809F938F930E9434010F900F900F900F90C4
S1130190173119F761E070E081E00E94FB018111E1
S11301A0F9CF85E291E09F938F930E9434010F90E1
S11301B00F90BE016F5F7F4F80E00E94D9018823BA
S11301C091F09A8189811F929F931F928F938CE261
S11301D091E09F938F930E9434010F900F900F90A2
S11301E00F900F900F902FEF87EA91E621508040F7
S11301F09040E1F700C00000DCCFFC01908121E0D9
S113020030E0D90102C0AA0FBB1F5A95E2F702C021
S1130210220F331F6A95E2F72A2B292B20838CB5F2
S113022081658CBD8CB5837D8CBD08958EBD0DB468
S113023007FEFDCF08958FEF8EBD0DB407FEFDCFF1
S11302408EB508951092C5008093C40088E1809310
S1130250C10086E08093C20008959091C00095FF8C
S1130260FCCF8093C6000895AF92BF92CF92DF92E5
S1130270EF92FF920F931F93CF93DF93CDB7DEB727
S11302802C970FB6F894DEBF0FBECDBFFE01799652
S1130290019111917F0178C0853209F06FC0680126
S11302A08FEFC81AD80AF8018181833651F020F4FF
S11302B0853209F45FC065C08436F1F0833751F0AC
S11302C060C087010E5F1F4FF70180810E942D01DE
S11302D0780157C05701F2E0AF0EB11CF70100815D
S11302E0118104C00F5F1F4F0E942D01F80180810E
S11302F08111F8CF750145C05701F2E0AF0EB11C72
S1130300F701E080F180E114F10421F480E30E941C
S11303102D012EC0FF2034F48DE20E942D01F194B2
S1130320E194F10800E010E011C0C7016AE070E058
S11303300E94D202805DE1E0F0E0EC0FFD1FE00FCF
S1130340F11F8083E62EF72E0F5F1F4F1E141F042C
S113035064F30BC001501109E1E0F0E0EC0FFD1F64
S1130360E00FF11F80810E942D011016110694F3F5
S1130370750107C085E20E942D0103C00E942D0172
S1130380680186010F5F1F4FF8018081811184CFBE
S11303902C960FB6F894DEBF0FBECDBFDF91CF9180
S11303A01F910F91FF90EF90DF90CF90BF90AF908F
S11303B00895AB01880F880F22E066E270E08F5F3A
S11303C00E94520291E0813009F090E0892F089553
S11303D040913F015091400160914101709142016F
S11303E084E290E00E94FD008FE39CE90197F1F71D
S11303F000C000000895CF93DF93C82FD62F872F16
S113040094B1946094B995B19B7F95B99AE09A950B
S1130410F1F700C00E9416018D2F0E9416018C2F47
S1130420880F880F880F0E9416010E941B019AE012
S11304309A95F1F700C094B1946094B995B1946021
S113044095B9DF91CF9108951F93CF93DF93C82F70
S1130450162F872FD42F94B1946094B995B19B7FB4
S113046095B99AE09A95F1F700C00E941601812F80
S11304700E9416018C2F880F880F880F84600E94B9
S113048016018D2F0E9416018AE08A95F1F700C0AB
S113049084B1846084B985B1846085B9DF91CF91DA
S11304A01F910895EF92FF920F931F93CF93DF93C1
S11304B0C82F162F872F7A01D22F94B1946094B944
S11304C095B19B7F95B99AE09A95F1F700C00E9487
S11304D01601812F0E9416018C2F880F880F880F18
S11304E00E94160180E0C1E0C80F8701080F111DAA
S11304F00E941B01F80180838C2FCD17A0F3FAE032
S1130500FA95F1F700C084B1846084B985B1846040
S113051085B981E0CD1380E0DF91CF911F910F91D8
S1130520FF90EF900895FF920F931F93CF93DF9363
S1130530C82FF62E872F8A01D22F94B1946094B9D4
S113054095B19B7F95B99AE09A95F1F700C00E9406
S113055016018F2D0E9416018C2F880F880F880F8B
S113056084600E94160180E0C1E0C80FF801E80F22
S1130570F11D80810E9416018C2FCD17A8F38AE00B
S11305808A95F1F700C084B1846084B985B1846030
S113059085B981E0CD1380E0DF91CF911F910F9158
S11305A0FF90089597FB072E16F4009407D077FD6B
S11305B009D00E94E60207FC05D03EF4909581958F
S11305C09F4F0895709561957F4F0895AA1BBB1B9B
S11305D051E107C0AA1FBB1FA617B70710F0A61B3F
S11305E0B70B881F991F5A95A9F780959095BC0160
S10B05F0CD010895F894FFCF3A
S11305F8A9FECABEA9FECAB1138800000000FFFF05
S113060800000008DC010203737461747573203DF3
S11306182025640A0054657374350A005253522025
S11306284C656E6774682025642C2025640A0004D0
S107063803050200B0
S9030000FC
